:020000040800F2
:10000000F00600202902000831020008330200082F
:10001000350200083702000839020008000000001D
:100020000000000000000000000000003B0200088B
:100030003D020008000000003F02000841040008E3
:10004000430200084302000843020008430200087C
:10005000430200084302000843020008430200086C
:10006000430200084302000843020008430200085C
:10007000430200084302000843020008430200084C
:10008000430200084302000843020008430200083C
:10009000430200084302000843020008430200082C
:1000A000430200084302000843020008430200081C
:1000B000430200084302000843020008430200080C
:1000C00043020008430200084302000843020008FC
:1000D0004302000825050008430200084302000807
:1000E00043020008430200084302000843020008DC
:1000F00043020008430200084302000843020008CC
:1001000043020008430200084302000843020008BB
:1001100043020008430200084302000843020008AB
:10012000430200084302000843020008430200089B
:10013000430200084302000843020008430200088B
:10014000430200084302000843020008430200087B
:10015000430200084302000843020008430200086B
:10016000430200084302000843020008430200085B
:100170004302000843020008430200080000000098
:10018000430200084302000800F002F800F03CF8C7
:100190000AA090E8000C82448344AAF10107DA45E2
:1001A00001D100F031F8AFF2090EBAE80F0013F0F8
:1001B000010F18BFFB1A43F001031847EC050000BC
:1001C0000C060000103A24BF78C878C1FAD852074C
:1001D00024BF30C830C144BF04680C6070470000C1
:1001E0000023002400250026103A28BF78C1FBD840
:1001F000520728BF30C148BF0B6070471FB500F0E1
:10020000CDFA1FBD10B510BD00F031F81146FFF753
:10021000F5FF00F0EBF900F04FF803B4FFF7F2FF41
:1002200003BC00F057F80000094880470948004720
:10023000FEE7FEE7FEE7FEE7FEE7FEE7FEE7FEE796
:10024000FEE7FEE704480549054A064B70470000F3
:100250006104000889010008F0000020F006002079
:10026000F0020020F002002070477047704775468A
:1002700000F02CF8AE4605006946534620F0070012
:10028000854618B020B5FFF7DDFFBDE820404FF0F0
:1002900000064FF000074FF000084FF0000B21F070
:1002A0000701AC46ACE8C009ACE8C009ACE8C0093D
:1002B000ACE8C0098D46704710B50446AFF3008026
:1002C0002046BDE81040FFF7A8BF00000048704777
:1002D0009000002001491820ABBEFEE72600020076
:1002E0007047F0B50A4600210023002400BF3DE01E
:1002F000012505FA01F3156805EA03049C4234D18F
:1003000005684F000326BE40B543056015794E00D1
:10031000B5400668354305601579012D02D0157981
:10032000022D16D185684F000326BE40B543856077
:1003300055794E00B540866835438560456801268D
:100340008E40B5434560456896798E40B6B23543D8
:100350004560C5684F000326BE40B543C560D579EA
:100360004E00B540C6683543C560491C1029BFD34F
:10037000F0BD0246002013690B400BB1012000E0E4
:10038000002070471CB50121072000F029F84FF428
:100390002A40009002208DF8050001208DF804000D
:1003A00000208DF806008DF8070069460A48FFF71F
:1003B00098FF4FF42840009002208DF8050000209F
:1003C0008DF804008DF8060002208DF807006946BC
:1003D0000248FFF786FF1CBD0010024000040240E7
:1003E00029B1064A12680243044B1A6004E0034A2A
:1003F00012688243014B1A60704700003038024097
:1004000000BF0549098801F080010029F9D0024A9E
:10041000121D1080704700000044004007484FF054
:10042000E02148610846006920F4803008610846F0
:10043000006940F00700086170470000409002002A
:1004400006480068401C054908604FF0E02000693C
:1004500020F480304FF0E021086170470000002058
:100460002A49096841F47001284A1160002000E01F
:10047000401CB0F5801FFBD32549096841F41441A5
:10048000234A116022490839096841F48031204A21
:10049000083A116000BF1E490839096801F40031AB
:1004A0000029F8D01B491A4A121F1160111F096850
:1004B00041F08071121F116000BF154908390968A9
:1004C00001F000710029F8D040F20561124A116074
:1004D0000F49096841F002010D4A116000BF0C4943
:1004E000096801F00F010A29F9D109492831096881
:1004F00041F01F01064A283211600849084A11607C
:100500004FF0FF31064A08321160704788ED00E075
:1005100008380240042A4007003C024000005555BC
:10052000000C024008B50948008800900748001DEB
:1005300000880749074A1278885406480078401C0A
:1005400000F07F000349087008BD0000004400402F
:1005500010000020050000201A48006840F4003018
:100560001849086017482038006840F400301549E1
:10057000203908601448006840F0A0001249086063
:100580000846006A40F4EE4008620E4820380068D1
:1005900020F400300B492039086041F217100B4954
:1005A0000880081D008842F22C0108430749091DF4
:1005B00008800748006840F040004FF0E021C1F893
:1005C00004017047403802400000024008440040E7
:1005D00004E100E000BF044909688142FBD3002127
:1005E000014A11607047000000000020FFF716FF6D
:1005F000FFF7C8FEFFF7B0FF00BFC5E0002063496A
:100600000883481508838000488380004883800061
:10061000488301115E48FFF7ACFE28B11420FFF7B4
:10062000D9FF01205B4908704FF400515848FFF78B
:10063000A0FE28B11420FFF7CDFF02205549087015
:100640004FF400415248FFF794FE28B11420FFF701
:10065000C1FF03204F49087000204C49088348150A
:10066000488380000883800048838000488301110C
:100670004748FFF77EFE28B11420FFF7ABFF0420A8
:10068000444908704FF400514148FFF772FE28B109
:100690001420FFF79FFF05203E4908704FF40041EA
:1006A0003B48FFF766FE28B11420FFF793FF0620B2
:1006B0003849087000203549088348154883800070
:1006C0004883800008838000488301113048FFF789
:1006D00050FE28B11420FFF77DFF07202D49087038
:1006E0004FF400512A48FFF744FE28B11420FFF7C9
:1006F00071FF0820274908704FF400412448FFF794
:1007000038FE28B11420FFF765FF09202149087041
:1007100000201E49088348154883800048838000D4
:1007200048838000088301111948FFF722FE28B191
:100730001420FFF74FFF2A20164908704FF400518C
:100740001348FFF716FE28B11420FFF743FF0020DF
:10075000104908704FF400410D48FFF70AFE28B118
:100760001420FFF737FF23200A4908700A48007851
:1007700008490978884207D006480078FFF740FE0C
:10078000044800780449087038E70000001002406F
:100790000004024007000020080000204FF04070D5
:1007A000E1EE100A70470000C807000800000020B2
:1007B00010000000C4010008D80700081000002045
:1007C000E0060000E001000800000000000000005A
:0807D000000000000000000021
:0400000508000229C4
:00000001FF
