:020000040800F2
:10000000900600204D020008550200085702000823
:10001000590200085B0200085D02000800000000B1
:100020000000000000000000000000005F02000867
:100030006102000800000000630200085907000880
:1000400067020008670200086702000867020008EC
:1000500067020008670200086702000867020008DC
:1000600067020008670200086702000867020008CC
:100070006702000809030008670200084903000836
:1000800067020008670200086702000867020008AC
:10009000670200086702000867020008670200089C
:1000A000670200086702000867020008670200088C
:1000B000670200086702000867020008670200087C
:1000C000670200086702000867020008AD05000823
:1000D000670200086702000867020008670200085C
:1000E000670200086702000867020008670200084C
:1000F000670200086702000867020008670200083C
:10010000670200086702000867020008670200082B
:10011000670200086702000867020008670200081B
:10012000670200086702000867020008670200080B
:1001300067020008670200086702000867020008FB
:1001400067020008670200086702000867020008EB
:1001500067020008670200086702000867020008DB
:1001600067020008670200086702000867020008CB
:1001700067020008670200086702000867020008BB
:1001800067020008670200086702000867020008AB
:10019000670200086702000867020008670200089B
:1001A00067020008670200086702000800F002F812
:1001B00000F03CF80AA090E8000C82448344AAF1C5
:1001C0000107DA4501D100F031F8AFF2090EBAE8C3
:1001D0000F0013F0010F18BFFB1A43F0010318477B
:1001E00090060000B0060000103A24BF78C878C11D
:1001F000FAD8520724BF30C830C144BF04680C602D
:10020000704700000023002400250026103A28BF74
:1002100078C1FBD8520728BF30C148BF0B60704778
:100220001FB500F01FFB1FBD10B510BD00F031F869
:100230001146FFF7F5FF00F00FFB00F04FF803B495
:10024000FFF7F2FF03BC00F057F8000009488047B1
:1002500009480047FEE7FEE7FEE7FEE7FEE7FEE7A8
:10026000FEE7FEE7FEE7FEE704480549054A064BC0
:100270007047000079070008AD01000890000020D9
:1002800090060020900200209002002070477047E6
:100290007047754600F02CF8AE4605006946534697
:1002A00020F00700854618B020B5FFF7DDFFBDE858
:1002B00020404FF000064FF000074FF000084FF0CD
:1002C000000B21F00701AC46ACE8C009ACE8C0095E
:1002D000ACE8C009ACE8C0098D46704710B50446CB
:1002E000AFF300802046BDE81040FFF7A8BF000034
:1002F000004870472C00002001491820ABBEFEE7E3
:10030000260002007047000010B54FF081510B48E5
:1003100000F076F880B10121094800F0FEF80021D4
:10032000064800F061F84FF08151044800F042F8AF
:10033000002004490968088010BD000040600240A8
:10034000005C00400800002010B51449144800F07B
:1003500057F810B30021124800F046F80F49104832
:1003600000F028F84FF420400E49086007E00D49DE
:100370000868411E0B4A116008B900F071FA0A4979
:100380000A4800F0D6F80028F1D00121074800F013
:10039000C4F8002006490968087010BD200000203C
:1003A000706002400400002004000010005C004067
:1003B0000C0000200246094B9A4201D2084801E095
:1003C0000648103801F000531BB1064B0B40C360C8
:1003D00002E0044B0B408360704700001064024051
:1003E000006002407D0F7D0F21B1026842F00102E2
:1003F000026003E0026822F0010202607047000020
:1004000030B503460A46002000240B4DAB4201D212
:100410000A4901E00849103902F000550DB14C6855
:1004200000E00C68064D2C4004EA02050DB10120E5
:1004300000E0002030BD0000106402400060024077
:100440007D0F7D0FF0B50A4600210023002400BF78
:100450003DE0012505FA01F3156805EA03049C4215
:1004600034D105684F000326BE40B54305601579B9
:100470004E00B5400668354305601579012D02D060
:100480001579022D16D185684F000326BE40B5436D
:10049000856055794E00B54086683543856045686E
:1004A00001268E40B5434560456896798E40B6B2C8
:1004B00035434560C5684F000326BE40B543C5605F
:1004C000D5794E00B540C6683543C560491C102932
:1004D000BFD3F0BDF0B5002300244D07ED0E02FAA6
:1004E00005F3CE1000F1200555F826504E07F70E03
:1004F0000F26BE40B543CF1000F1200646F8275026
:10050000CE1000F1200555F8265045EA0304CE1020
:1005100000F1200545F82640F0BD21B1028842F4E3
:100520000072028004E002884FF6FF531A400280F6
:1005300070470CB5024600200023019300930092FF
:100540000B0F019321F07F41019B1BB1009B1433E2
:10055000009303E0090C009B18330093009B1B6879
:100560000B400BB1012000E000200CBD29B1064A70
:1005700012680243044B1A6004E0034A1268824383
:10058000014B1A60704700003038024029B1064A1A
:1005900012680243044B1A6004E0034A1268824363
:1005A000014B1A6070470000443802400E48006951
:1005B00000F08000B0B90D48007803280FDA0C492C
:1005C0008989CAB209490878411C084B1970094940
:1005D0000A5409480068401C0749086002E00020EE
:1005E0000249087070470000001002402A000020F5
:1005F00000300140240000202000002021B10288AA
:1006000042F04002028004E002884FF6BF731A40B5
:100610000280704730B5002400230C110125A5404D
:10062000ABB21AB185881D43858002E085889D4361
:10063000858030BD10B50022028802F441520B883B
:100640004C8823438C882343CC8823430C89234341
:100650004C8923438C892343CC8923431A4302804A
:10066000838B4FF2FF74234083830B8A038210BD78
:1006700000B587B001210846FFF778FFE02005901C
:1006800002208DF8180000208DF81A0002208DF845
:10069000190000208DF81B0005A92B48FFF7D2FE9A
:1006A000052211462848FFF715FF05220621264896
:1006B000FFF710FF052207212348FFF70BFF012159
:1006C0001020FFF753FF8020059000208DF81800C0
:1006D0008DF81A0002208DF8190001208DF81B00FA
:1006E00005A91A48FFF7AEFE01210803FFF74EFFE8
:1006F0000020ADF80000ADF80200ADF80400ADF840
:100700000600ADF808004FF40070ADF80A000820AC
:10071000ADF80C000020ADF80E0069460C48FFF75C
:1007200089FF012260210A48FFF774FF0121084870
:10073000FFF764FF0748006840F008004FF0E02131
:10074000C1F8040107B000BD0000024000100240E3
:100750000030014004E100E006480068401C054903
:1007600008604FF0E020006920F480304FF0E02175
:1007700008617047140000203049096841F4700195
:100780002E4A1160002000E0401CB0F5801FFBD312
:100790002B49096841F41441294A11602849083954
:1007A000096841F48031264A083A116000BF2449A3
:1007B0000839096801F400310029F8D02149204A9C
:1007C000121F1160111F096841F08071121F116022
:1007D00000BF1B490839096801F000710029F8D0F1
:1007E00040F20561184A11601549096841F002019B
:1007F000134A116000BF1249096801F00F010A296C
:10080000F9D10F492831096841F07F010C4A28329B
:1008100011600E49096841F0A0510C4A11604FF077
:10082000FF310A4A0832116009490A4A11604FF043
:10083000FF31084A083211607047000088ED00E07F
:1008400008380240042A4007003C024000180240D9
:1008500000005555000C0240FFF70AFF00BFFEE7FD
:1008600000BFFEE74FF04070E1EE100A7047000055
:1008700090080008000000202C000000E80100089B
:10088000BC0800082C0000206406000004020008D8
:100890000000000000A000000000000000000000B8
:1008A0000000000000000000000000000000000048
:0C08B0000000000000000000000000003C
:040000050800024DA0
:00000001FF
